{
  "contractName": "CoinFlip",
  "abi": [
    {
      "inputs": [],
      "payable": false,
      "stateMutability": "nonpayable",
      "type": "constructor"
    },
    {
      "anonymous": false,
      "inputs": [
        {
          "indexed": false,
          "internalType": "uint256",
          "name": "operator",
          "type": "uint256"
        },
        {
          "indexed": false,
          "internalType": "address[]",
          "name": "joins",
          "type": "address[]"
        },
        {
          "indexed": false,
          "internalType": "uint256",
          "name": "operation",
          "type": "uint256"
        },
        {
          "indexed": false,
          "internalType": "uint256",
          "name": "msg",
          "type": "uint256"
        },
        {
          "indexed": false,
          "internalType": "bytes32",
          "name": "hash",
          "type": "bytes32"
        },
        {
          "indexed": true,
          "internalType": "uint256",
          "name": "time",
          "type": "uint256"
        }
      ],
      "name": "Game",
      "type": "event"
    },
    {
      "constant": true,
      "inputs": [],
      "name": "game_status",
      "outputs": [
        {
          "internalType": "uint256",
          "name": "",
          "type": "uint256"
        }
      ],
      "payable": false,
      "stateMutability": "view",
      "type": "function"
    },
    {
      "constant": true,
      "inputs": [
        {
          "internalType": "uint256",
          "name": "",
          "type": "uint256"
        }
      ],
      "name": "players",
      "outputs": [
        {
          "internalType": "address payable",
          "name": "",
          "type": "address"
        }
      ],
      "payable": false,
      "stateMutability": "view",
      "type": "function"
    },
    {
      "constant": false,
      "inputs": [],
      "name": "JoinGame",
      "outputs": [],
      "payable": false,
      "stateMutability": "nonpayable",
      "type": "function"
    },
    {
      "constant": false,
      "inputs": [
        {
          "internalType": "bytes32",
          "name": "hash_value",
          "type": "bytes32"
        }
      ],
      "name": "AddBet",
      "outputs": [],
      "payable": true,
      "stateMutability": "payable",
      "type": "function"
    },
    {
      "constant": false,
      "inputs": [
        {
          "internalType": "uint256",
          "name": "x",
          "type": "uint256"
        },
        {
          "internalType": "string",
          "name": "y",
          "type": "string"
        }
      ],
      "name": "AddResult",
      "outputs": [],
      "payable": false,
      "stateMutability": "nonpayable",
      "type": "function"
    },
    {
      "constant": false,
      "inputs": [
        {
          "internalType": "uint256",
          "name": "bet_value",
          "type": "uint256"
        }
      ],
      "name": "startGame",
      "outputs": [],
      "payable": false,
      "stateMutability": "nonpayable",
      "type": "function"
    },
    {
      "constant": false,
      "inputs": [],
      "name": "pendResult",
      "outputs": [],
      "payable": true,
      "stateMutability": "payable",
      "type": "function"
    },
    {
      "constant": true,
      "inputs": [],
      "name": "getWinner",
      "outputs": [
        {
          "internalType": "uint256",
          "name": "",
          "type": "uint256"
        }
      ],
      "payable": false,
      "stateMutability": "view",
      "type": "function"
    },
    {
      "constant": true,
      "inputs": [],
      "name": "getBank",
      "outputs": [
        {
          "internalType": "address",
          "name": "",
          "type": "address"
        }
      ],
      "payable": false,
      "stateMutability": "view",
      "type": "function"
    },
    {
      "constant": true,
      "inputs": [],
      "name": "getGameStatus",
      "outputs": [
        {
          "internalType": "uint256",
          "name": "",
          "type": "uint256"
        },
        {
          "internalType": "uint256",
          "name": "",
          "type": "uint256"
        }
      ],
      "payable": false,
      "stateMutability": "view",
      "type": "function"
    },
    {
      "constant": true,
      "inputs": [],
      "name": "getId",
      "outputs": [
        {
          "internalType": "uint256",
          "name": "",
          "type": "uint256"
        }
      ],
      "payable": false,
      "stateMutability": "view",
      "type": "function"
    }
  ],
  "bytecode": "0x608060405234801561001057600080fd5b50336000806101000a81548173ffffffffffffffffffffffffffffffffffffffff021916908373ffffffffffffffffffffffffffffffffffffffff160217905550600160058190555060006006819055506000600181905550611a78806100786000396000f3fe60806040526004361061009c5760003560e01c806360d704db1161006457806360d704db1461014a578063696d135f146101a15780637bb5fb7c146102735780638e7ea5b2146102a1578063e5ed1d59146102cc578063f71d96cb146103075761009c565b806308ee974f146100a157806319c19b34146100ab578063382396ee146100d65780634d30c00d146101085780635d1ca6311461011f575b600080fd5b6100a9610382565b005b3480156100b757600080fd5b506100c0610b0b565b6040518082815260200191505060405180910390f35b3480156100e257600080fd5b506100eb610b11565b604051808381526020018281526020019250505060405180910390f35b34801561011457600080fd5b5061011d610b92565b005b34801561012b57600080fd5b50610134610e8c565b6040518082815260200191505060405180910390f35b34801561015657600080fd5b5061015f610f22565b604051808273ffffffffffffffffffffffffffffffffffffffff1673ffffffffffffffffffffffffffffffffffffffff16815260200191505060405180910390f35b3480156101ad57600080fd5b50610271600480360360408110156101c457600080fd5b8101908080359060200190929190803590602001906401000000008111156101eb57600080fd5b8201836020820111156101fd57600080fd5b8035906020019184600183028401116401000000008311171561021f57600080fd5b91908080601f016020809104026020016040519081016040528093929190818152602001838380828437600081840152601f19601f820116905080830192505050505050509192919290505050610f4b565b005b61029f6004803603602081101561028957600080fd5b8101908080359060200190929190505050611264565b005b3480156102ad57600080fd5b506102b6611531565b6040518082815260200191505060405180910390f35b3480156102d857600080fd5b50610305600480360360208110156102ef57600080fd5b8101908080359060200190929190505050611606565b005b34801561031357600080fd5b506103406004803603602081101561032a57600080fd5b8101908080359060200190929190505050611894565b604051808273ffffffffffffffffffffffffffffffffffffffff1673ffffffffffffffffffffffffffffffffffffffff16815260200191505060405180910390f35b6000809054906101000a900473ffffffffffffffffffffffffffffffffffffffff1673ffffffffffffffffffffffffffffffffffffffff163373ffffffffffffffffffffffffffffffffffffffff1614610444576040517f08c379a00000000000000000000000000000000000000000000000000000000081526004018080602001828103825260168152602001807f6f6e6c792042616e6b2063616e20646f2074686973210000000000000000000081525060200191505060405180910390fd5b600060065414156104bd576040517f08c379a00000000000000000000000000000000000000000000000000000000081526004018080602001828103825260138152602001807f446f206e6f74206e65656420746f2070656e640000000000000000000000000081525060200191505060405180910390fd5b6001600654141561068f576000600190505b6005548110156105b0576000600460008381526020019081526020016000206001015411156105a5576002600082815260200190815260200160002060009054906101000a900473ffffffffffffffffffffffffffffffffffffffff1673ffffffffffffffffffffffffffffffffffffffff166108fc60046000848152602001908152602001600020600101549081150290604051600060405180830381858888f19350505050158015610587573d6000803e3d6000fd5b50600060046000838152602001908152602001600020600101819055505b8060010190506104cf565b50600360006105bf91906119fd565b427f443493957be3abe3cd79ebb1ec8868b824a8fb64745d638762523669d336401360006003600160006040518085815260200180602001848152602001838152602001602001828103825285818154815260200191508054801561067957602002820191906000526020600020905b8160009054906101000a900473ffffffffffffffffffffffffffffffffffffffff1673ffffffffffffffffffffffffffffffffffffffff168152602001906001019080831161062f575b50509550505050505060405180910390a2610af9565b6002600654141561087d576000600190505b60055481101561079e57600060046000838152602001908152602001600020600101541115610793576002600082815260200190815260200160002060009054906101000a900473ffffffffffffffffffffffffffffffffffffffff1673ffffffffffffffffffffffffffffffffffffffff166108fc60046000848152602001908152602001600020600101549081150290604051600060405180830381858888f19350505050158015610759573d6000803e3d6000fd5b5060006004600083815260200190815260200160002060010181905550600060046000838152602001908152602001600020600301819055505b8060010190506106a1565b50600360006107ad91906119fd565b427f443493957be3abe3cd79ebb1ec8868b824a8fb64745d638762523669d336401360006003600260006040518085815260200180602001848152602001838152602001602001828103825285818154815260200191508054801561086757602002820191906000526020600020905b8160009054906101000a900473ffffffffffffffffffffffffffffffffffffffff1673ffffffffffffffffffffffffffffffffffffffff168152602001906001019080831161081d575b50509550505050505060405180910390a2610af8565b60036006541415610af7576000610892611531565b905060008090506000600190505b6005548110156108d0576004600082815260200190815260200160002060010154820191508060010190506108a0565b5060006064605f8302816108e057fe5b0490506002600084815260200190815260200160002060009054906101000a900473ffffffffffffffffffffffffffffffffffffffff1673ffffffffffffffffffffffffffffffffffffffff166108fc829081150290604051600060405180830381858888f1935050505015801561095c573d6000803e3d6000fd5b506000600190505b6005548110156109b1576000600460008381526020019081526020016000206001018190555060006004600083815260200190815260200160002060030181905550806001019050610964565b50600360006109c091906119fd565b427f443493957be3abe3cd79ebb1ec8868b824a8fb64745d638762523669d336401360006003808760405180858152602001806020018481526020018381526020016020018281038252858181548152602001915080548015610a7857602002820191906000526020600020905b8160009054906101000a900473ffffffffffffffffffffffffffffffffffffffff1673ffffffffffffffffffffffffffffffffffffffff1681526020019060010190808311610a2e575b50509550505050505060405180910390a26000809054906101000a900473ffffffffffffffffffffffffffffffffffffffff1673ffffffffffffffffffffffffffffffffffffffff166108fc8284039081150290604051600060405180830381858888f19350505050158015610af2573d6000803e3d6000fd5b505050505b5b5b60016005819055506000600681905550565b60065481565b60008060006006541415610b3357600060016005540381915091509150610b8e565b60016006541415610b4e576001805481915091509150610b8e565b60026006541415610b6c576002600081915080905091509150610b8e565b60036006541415610b8d576003610b81611531565b81915091509150610b8e565b5b9091565b600060065414610c0a576040517f08c379a00000000000000000000000000000000000000000000000000000000081526004018080602001828103825260158152602001807f43616e6e6f74206a6f696e2067616d65206e6f7721000000000000000000000081525060200191505060405180910390fd5b6000809054906101000a900473ffffffffffffffffffffffffffffffffffffffff1673ffffffffffffffffffffffffffffffffffffffff163373ffffffffffffffffffffffffffffffffffffffff161415610ccd576040517f08c379a00000000000000000000000000000000000000000000000000000000081526004018080602001828103825260168152602001807f42616e6b2063616e6e6f74206a6f696e2067616d65210000000000000000000081525060200191505060405180910390fd5b6000600190505b600554811015610dbe573373ffffffffffffffffffffffffffffffffffffffff166002600083815260200190815260200160002060009054906101000a900473ffffffffffffffffffffffffffffffffffffffff1673ffffffffffffffffffffffffffffffffffffffff161415610db3576040517f08c379a00000000000000000000000000000000000000000000000000000000081526004018080602001828103825260188152602001807f596f752061726520616c726561647920696e2067616d6521000000000000000081525060200191505060405180910390fd5b806001019050610cd4565b503360026000600554815260200190815260200160002060006101000a81548173ffffffffffffffffffffffffffffffffffffffff021916908373ffffffffffffffffffffffffffffffffffffffff16021790555060033390806001815401808255809150509060018203906000526020600020016000909192909190916101000a81548173ffffffffffffffffffffffffffffffffffffffff021916908373ffffffffffffffffffffffffffffffffffffffff160217905550506001600560008282540192505081905550565b600080600190505b600554811015610f19573373ffffffffffffffffffffffffffffffffffffffff166002600083815260200190815260200160002060009054906101000a900473ffffffffffffffffffffffffffffffffffffffff1673ffffffffffffffffffffffffffffffffffffffff161415610f0e5780915050610f1f565b806001019050610e94565b50600090505b90565b60008060009054906101000a900473ffffffffffffffffffffffffffffffffffffffff16905090565b600260065414610fc3576040517f08c379a00000000000000000000000000000000000000000000000000000000081526004018080602001828103825260168152602001807f43616e6e6f742061646420726573756c74206e6f77210000000000000000000081525060200191505060405180910390fd5b6000610fce336118c7565b90506000811415611047576040517f08c379a00000000000000000000000000000000000000000000000000000000081526004018080602001828103825260168152602001807f596f757220617265206e6f74206120706c61796572210000000000000000000081525060200191505060405180910390fd5b6000826040516020018082805190602001908083835b60208310611080578051825260208201915060208101905060208303925061105d565b6001836020036101000a03801982511681845116808217855250505050505090500191505060405160208183030381529060405280519060200120905060046000838152602001908152602001600020600401548114611148576040517f08c379a000000000000000000000000000000000000000000000000000000000815260040180806020018281038252600d8152602001807f57726f6e67206e756d626572210000000000000000000000000000000000000081525060200191505060405180910390fd5b60016004600084815260200190815260200160002060030181905550836004600084815260200190815260200160002060020181905550427f443493957be3abe3cd79ebb1ec8868b824a8fb64745d638762523669d33640138360036002886040518085815260200180602001848152602001838152602001602001828103825285818154815260200191508054801561123757602002820191906000526020600020905b8160009054906101000a900473ffffffffffffffffffffffffffffffffffffffff1673ffffffffffffffffffffffffffffffffffffffff16815260200190600101908083116111ed575b50509550505050505060405180910390a261125061195f565b1561125e5760036006819055505b50505050565b6001600654146112dc576040517f08c379a000000000000000000000000000000000000000000000000000000000815260040180806020018281038252600f8152602001807f43616e6e6f7420626574206e6f7721000000000000000000000000000000000081525060200191505060405180910390fd5b60006112e7336118c7565b90506000811415611360576040517f08c379a00000000000000000000000000000000000000000000000000000000081526004018080602001828103825260168152602001807f596f757220617265206e6f74206120706c61796572210000000000000000000081525060200191505060405180910390fd5b60015434146113d7576040517f08c379a000000000000000000000000000000000000000000000000000000000815260040180806020018281038252601a8152602001807f506c656173652073656e6420636f7272656374206d6f6e65792100000000000081525060200191505060405180910390fd5b6040518060a00160405280428152602001348152602001600081526020016000815260200183815250600460008381526020019081526020016000206000820151816000015560208201518160010155604082015181600201556060820151816003015560808201518160040155905050427f443493957be3abe3cd79ebb1ec8868b824a8fb64745d638762523669d336401382600360016000876040518086815260200180602001858152602001848152602001838152602001828103825286818154815260200191508054801561150557602002820191906000526020600020905b8160009054906101000a900473ffffffffffffffffffffffffffffffffffffffff1673ffffffffffffffffffffffffffffffffffffffff16815260200190600101908083116114bb575b5050965050505050505060405180910390a261151f6119ae565b1561152d5760026006819055505b5050565b60006003600654146115ab576040517f08c379a00000000000000000000000000000000000000000000000000000000081526004018080602001828103825260158152602001807f43616e6f74206765742077696e6e65722079657421000000000000000000000081525060200191505060405180910390fd5b60008090506000600190505b6005548110156115e7576004600082815260200190815260200160002060020154820191508060010190506115b7565b50600060016005540382816115f857fe5b069050600181019250505090565b6000809054906101000a900473ffffffffffffffffffffffffffffffffffffffff1673ffffffffffffffffffffffffffffffffffffffff163373ffffffffffffffffffffffffffffffffffffffff16146116c8576040517f08c379a00000000000000000000000000000000000000000000000000000000081526004018080602001828103825260168152602001807f6f6e6c792042616e6b2063616e20646f2074686973210000000000000000000081525060200191505060405180910390fd5b600060065414611740576040517f08c379a000000000000000000000000000000000000000000000000000000000815260040180806020018281038252601c8152602001807f43616e6e6f742073746172742061206e65772067616d65206e6f77210000000081525060200191505060405180910390fd5b6002600554116117b8576040517f08c379a000000000000000000000000000000000000000000000000000000000815260040180806020018281038252601c8152602001807f446f206e6f74206861766520656e676f75676820706c6179657273210000000081525060200191505060405180910390fd5b600160068190555080600181905550427f443493957be3abe3cd79ebb1ec8868b824a8fb64745d638762523669d3364013600060036000856040518085815260200180602001848152602001838152602001602001828103825285818154815260200191508054801561188057602002820191906000526020600020905b8160009054906101000a900473ffffffffffffffffffffffffffffffffffffffff1673ffffffffffffffffffffffffffffffffffffffff1681526020019060010190808311611836575b50509550505050505060405180910390a250565b60026020528060005260406000206000915054906101000a900473ffffffffffffffffffffffffffffffffffffffff1681565b600080600190505b600554811015611954578273ffffffffffffffffffffffffffffffffffffffff166002600083815260200190815260200160002060009054906101000a900473ffffffffffffffffffffffffffffffffffffffff1673ffffffffffffffffffffffffffffffffffffffff161415611949578091505061195a565b8060010190506118cf565b50600090505b919050565b600080600190505b6005548110156119a55760006004600083815260200190815260200160002060030154141561199a5760009150506119ab565b806001019050611967565b50600190505b90565b600080600190505b6005548110156119f4576000600460008381526020019081526020016000206001015414156119e95760009150506119fa565b8060010190506119b6565b50600190505b90565b5080546000825590600052602060002090810190611a1b9190611a1e565b50565b611a4091905b80821115611a3c576000816000905550600101611a24565b5090565b9056fea265627a7a72315820c4fad225b1ba1212003ba3eac0b3ff2a765e4778216842e2880ae5661fe0c37764736f6c63430005100032",
  "source": "pragma solidity >= 0.5.0 <0.7.0;\n\ncontract CoinFlip{\n    address payable bank;\n    uint bet_amount;\n    mapping(uint => address payable) public players;\n    address[] participants;\n\n    struct Bet{\n        uint time;\n        uint amount;\n        uint bet_num;\n        uint approve;\n        bytes32 hash_value;\n    }\n    mapping(uint => Bet) bets;\n\n    uint id_count;\n    uint public game_status; // 0: no game 1: phase one 2: phase two 3: waiting for transfer\n\n    //uint wait_time;\n    //uint start_time1;\n    //uint start_time2;\n\n    constructor() public {\n        bank = msg.sender;\n        id_count = 1;\n        game_status = 0;\n        bet_amount = 0;\n\n        //wait_time = 120;\n        //start_time1 = 0;\n        //start_time2 = 0;\n    }\n\n    event Game(uint operator, address[] joins, uint operation, uint msg, bytes32 hash, uint indexed time);\n\n\n    /*function for players*/\n\n    function JoinGame() public {\n        require(game_status == 0, \"Cannot join game now!\");\n        require(msg.sender != bank, \"Bank cannot join game!\");\n        for (uint i = 1; i < id_count; ++i) {\n            require(players[i] != msg.sender, \"You are already in game!\");\n        }\n        players[id_count] = msg.sender;\n        participants.push(msg.sender);\n        id_count += 1;\n    }\n\n    // round one\n    function AddBet(bytes32 hash_value) public payable{\n        require(game_status == 1, \"Cannot bet now!\");\n        uint id = getId(msg.sender);\n        require(id != 0, \"Your are not a player!\");\n        require(msg.value == bet_amount, \"Please send correct money!\");\n        bets[id] = Bet(now, msg.value, 0, 0, hash_value);\n        //event\n        emit Game(id, participants, 1, 0, hash_value, now);\n        // judge\n        if (ifPhase1Fin()) {\n            game_status = 2;\n            //start_time2 = now;\n        }\n\n    }\n\n    // round two\n    function AddResult(uint x, string memory y) public{\n        require(game_status == 2 , \"Cannot add result now!\");\n        uint id = getId(msg.sender);\n        require(id != 0, \"Your are not a player!\");\n        bytes32 hash_x = keccak256(abi.encodePacked(y));\n        require(hash_x == bets[id].hash_value, \"Wrong number!\");\n        bets[id].approve = 1;\n        bets[id].bet_num = x;\n        emit Game(id, participants, 2, x, \"\", now);\n        // judge\n        if (ifPhase2Fin()) {\n            game_status = 3;\n        }\n    }\n\n\n    /*function for bank*/\n\n    modifier mustBeBank{\n        require(msg.sender == bank, \"only Bank can do this!\");\n        _;\n    }\n\n    function startGame(uint bet_value) public mustBeBank{\n        require(game_status == 0, \"Cannot start a new game now!\");\n        require(id_count > 2, \"Do not have engough players!\");\n        game_status = 1;\n        //start_time1 = now;\n        bet_amount = bet_value;\n        //wait_time = limit_time;\n        emit Game(0, participants, 0, bet_value, \"\", now);\n    }\n\n    function pendResult() public mustBeBank payable{\n        require(game_status != 0, \"Do not need to pend\");\n        if (game_status == 1) {\n            for (uint i = 1; i < id_count; ++i) {\n                if (bets[i].amount > 0) {\n                    players[i].transfer(bets[i].amount);\n                    bets[i].amount = 0;\n                }\n            }\n            delete participants;\n            emit Game(0, participants, 1, 0, \"\", now);\n\n        }\n        else if (game_status == 2) {\n            for (uint i = 1; i < id_count; ++i) {\n                if (bets[i].amount > 0) {\n                    players[i].transfer(bets[i].amount);\n                    bets[i].amount = 0;\n                    bets[i].approve = 0;\n                }\n            }\n            delete participants;\n            emit Game(0, participants, 2, 0, \"\", now);\n        }\n        else if (game_status == 3) {\n            uint winner = getWinner();\n            //uint total = address(this).balance;\n            uint total = 0;\n            for (uint i = 1; i < id_count; ++i) {\n                total += bets[i].amount;\n            }\n            uint winnum = total * 95 / 100;\n            players[winner].transfer(winnum);\n            for (uint i = 1; i < id_count; ++i) {\n                bets[i].amount = 0;\n                bets[i].approve = 0;\n            }\n            delete participants;\n            emit Game(0, participants, 3, winner, \"\", now);\n            bank.transfer(total - winnum);\n        }\n        id_count = 1;\n        game_status = 0;\n        //bank.transfer(address(this).balance);\n    }\n\n\n    /*public function*/\n\n    function getWinner() public view returns(uint){\n        require(game_status == 3, \"Canot get winner yet!\");\n        uint result = 0;\n        for (uint i = 1; i < id_count; ++i) {\n            result += bets[i].bet_num;\n        }\n        uint id = result % (id_count - 1);\n        return id + 1;\n    }\n\n    function getId() public view returns(uint){\n        for (uint i = 1; i < id_count; ++i) {\n            if(players[i] == msg.sender) {\n                return i;\n            }\n        }\n        return 0;\n    }\n\n    function getBank() public view returns(address) {\n        return bank;\n    }\n\n    function getGameStatus() public view returns(uint, uint) {\n        if (game_status == 0) {\n            return (0, id_count - 1 );\n        }\n        else if(game_status == 1) {\n            return (1, bet_amount);\n        }\n        else if(game_status == 2) {\n            return (2, 0);\n        }\n        else if(game_status == 3) {\n            return (3, getWinner());\n        }\n    }\n\n\n    /*auxiliary function*/\n\n    function ifPhase1Fin() private view returns(bool) {\n        for (uint i = 1; i < id_count; ++i) {\n            if (bets[i].amount == 0) {\n                return false;\n            }\n        }\n        return true;\n    }\n\n    function ifPhase2Fin() private view returns(bool) {\n        for (uint i = 1; i < id_count; ++i) {\n            if (bets[i].approve == 0) {\n                return false;\n            }\n        }\n        return true;\n    }\n\n    function getId(address addr) private view returns(uint) {\n        for (uint i = 1; i < id_count; ++i) {\n            if(players[i] == addr) {\n                return i;\n            }\n        }\n        return 0;\n    }\n\n\n\n}",
  "sourcePath": "/Users/ningjing/blockchain/coin-flipping/contracts/CoinFlip.sol",
  "compiler": {
    "name": "solc",
    "version": "0.5.16+commit.9c3226ce.Emscripten.clang"
  },
  "schemaVersion": "3.0.23",
  "updatedAt": "2020-04-27T15:28:51.392Z",
  "networkType": "ethereum",
  "devdoc": {
    "methods": {}
  },
  "userdoc": {
    "methods": {}
  }
}